{
  "contractName": "GameItem",
  "abi": [
    {
      "inputs": [],
      "stateMutability": "nonpayable",
      "type": "constructor"
    },
    {
      "anonymous": false,
      "inputs": [
        {
          "indexed": true,
          "internalType": "address",
          "name": "owner",
          "type": "address"
        },
        {
          "indexed": true,
          "internalType": "address",
          "name": "approved",
          "type": "address"
        },
        {
          "indexed": true,
          "internalType": "uint256",
          "name": "tokenId",
          "type": "uint256"
        }
      ],
      "name": "Approval",
      "type": "event"
    },
    {
      "anonymous": false,
      "inputs": [
        {
          "indexed": true,
          "internalType": "address",
          "name": "owner",
          "type": "address"
        },
        {
          "indexed": true,
          "internalType": "address",
          "name": "operator",
          "type": "address"
        },
        {
          "indexed": false,
          "internalType": "bool",
          "name": "approved",
          "type": "bool"
        }
      ],
      "name": "ApprovalForAll",
      "type": "event"
    },
    {
      "anonymous": false,
      "inputs": [
        {
          "indexed": true,
          "internalType": "address",
          "name": "previousOwner",
          "type": "address"
        },
        {
          "indexed": true,
          "internalType": "address",
          "name": "newOwner",
          "type": "address"
        }
      ],
      "name": "OwnershipTransferred",
      "type": "event"
    },
    {
      "anonymous": false,
      "inputs": [
        {
          "indexed": true,
          "internalType": "address",
          "name": "from",
          "type": "address"
        },
        {
          "indexed": true,
          "internalType": "address",
          "name": "to",
          "type": "address"
        },
        {
          "indexed": true,
          "internalType": "uint256",
          "name": "tokenId",
          "type": "uint256"
        }
      ],
      "name": "Transfer",
      "type": "event"
    },
    {
      "inputs": [
        {
          "internalType": "address",
          "name": "to",
          "type": "address"
        },
        {
          "internalType": "uint256",
          "name": "tokenId",
          "type": "uint256"
        }
      ],
      "name": "approve",
      "outputs": [],
      "stateMutability": "nonpayable",
      "type": "function"
    },
    {
      "inputs": [
        {
          "internalType": "address",
          "name": "owner",
          "type": "address"
        }
      ],
      "name": "balanceOf",
      "outputs": [
        {
          "internalType": "uint256",
          "name": "",
          "type": "uint256"
        }
      ],
      "stateMutability": "view",
      "type": "function",
      "constant": true
    },
    {
      "inputs": [
        {
          "internalType": "uint256",
          "name": "tokenId",
          "type": "uint256"
        }
      ],
      "name": "getApproved",
      "outputs": [
        {
          "internalType": "address",
          "name": "",
          "type": "address"
        }
      ],
      "stateMutability": "view",
      "type": "function",
      "constant": true
    },
    {
      "inputs": [
        {
          "internalType": "address",
          "name": "owner",
          "type": "address"
        },
        {
          "internalType": "address",
          "name": "operator",
          "type": "address"
        }
      ],
      "name": "isApprovedForAll",
      "outputs": [
        {
          "internalType": "bool",
          "name": "",
          "type": "bool"
        }
      ],
      "stateMutability": "view",
      "type": "function",
      "constant": true
    },
    {
      "inputs": [],
      "name": "name",
      "outputs": [
        {
          "internalType": "string",
          "name": "",
          "type": "string"
        }
      ],
      "stateMutability": "view",
      "type": "function",
      "constant": true
    },
    {
      "inputs": [],
      "name": "owner",
      "outputs": [
        {
          "internalType": "address",
          "name": "",
          "type": "address"
        }
      ],
      "stateMutability": "view",
      "type": "function",
      "constant": true
    },
    {
      "inputs": [
        {
          "internalType": "uint256",
          "name": "tokenId",
          "type": "uint256"
        }
      ],
      "name": "ownerOf",
      "outputs": [
        {
          "internalType": "address",
          "name": "",
          "type": "address"
        }
      ],
      "stateMutability": "view",
      "type": "function",
      "constant": true
    },
    {
      "inputs": [],
      "name": "renounceOwnership",
      "outputs": [],
      "stateMutability": "nonpayable",
      "type": "function"
    },
    {
      "inputs": [
        {
          "internalType": "address",
          "name": "from",
          "type": "address"
        },
        {
          "internalType": "address",
          "name": "to",
          "type": "address"
        },
        {
          "internalType": "uint256",
          "name": "tokenId",
          "type": "uint256"
        }
      ],
      "name": "safeTransferFrom",
      "outputs": [],
      "stateMutability": "nonpayable",
      "type": "function"
    },
    {
      "inputs": [
        {
          "internalType": "address",
          "name": "from",
          "type": "address"
        },
        {
          "internalType": "address",
          "name": "to",
          "type": "address"
        },
        {
          "internalType": "uint256",
          "name": "tokenId",
          "type": "uint256"
        },
        {
          "internalType": "bytes",
          "name": "_data",
          "type": "bytes"
        }
      ],
      "name": "safeTransferFrom",
      "outputs": [],
      "stateMutability": "nonpayable",
      "type": "function"
    },
    {
      "inputs": [
        {
          "internalType": "address",
          "name": "operator",
          "type": "address"
        },
        {
          "internalType": "bool",
          "name": "approved",
          "type": "bool"
        }
      ],
      "name": "setApprovalForAll",
      "outputs": [],
      "stateMutability": "nonpayable",
      "type": "function"
    },
    {
      "inputs": [
        {
          "internalType": "bytes4",
          "name": "interfaceId",
          "type": "bytes4"
        }
      ],
      "name": "supportsInterface",
      "outputs": [
        {
          "internalType": "bool",
          "name": "",
          "type": "bool"
        }
      ],
      "stateMutability": "view",
      "type": "function",
      "constant": true
    },
    {
      "inputs": [],
      "name": "symbol",
      "outputs": [
        {
          "internalType": "string",
          "name": "",
          "type": "string"
        }
      ],
      "stateMutability": "view",
      "type": "function",
      "constant": true
    },
    {
      "inputs": [
        {
          "internalType": "uint256",
          "name": "tokenId",
          "type": "uint256"
        }
      ],
      "name": "tokenURI",
      "outputs": [
        {
          "internalType": "string",
          "name": "",
          "type": "string"
        }
      ],
      "stateMutability": "view",
      "type": "function",
      "constant": true
    },
    {
      "inputs": [
        {
          "internalType": "address",
          "name": "from",
          "type": "address"
        },
        {
          "internalType": "address",
          "name": "to",
          "type": "address"
        },
        {
          "internalType": "uint256",
          "name": "tokenId",
          "type": "uint256"
        }
      ],
      "name": "transferFrom",
      "outputs": [],
      "stateMutability": "nonpayable",
      "type": "function"
    },
    {
      "inputs": [
        {
          "internalType": "address",
          "name": "newOwner",
          "type": "address"
        }
      ],
      "name": "transferOwnership",
      "outputs": [],
      "stateMutability": "nonpayable",
      "type": "function"
    },
    {
      "inputs": [
        {
          "internalType": "address",
          "name": "player",
          "type": "address"
        },
        {
          "internalType": "string",
          "name": "tokenURI",
          "type": "string"
        }
      ],
      "name": "awardItem",
      "outputs": [
        {
          "internalType": "uint256",
          "name": "",
          "type": "uint256"
        }
      ],
      "stateMutability": "nonpayable",
      "type": "function"
    }
  ],
  "bytecode": "0x60806040523480156200001157600080fd5b506040518060400160405280600881526020017f47616d654974656d0000000000000000000000000000000000000000000000008152506040518060400160405280600381526020017f49544d0000000000000000000000000000000000000000000000000000000000815250816000908051906020019062000096929190620001a6565b508060019080519060200190620000af929190620001a6565b505050620000d2620000c6620000d860201b60201c565b620000e060201b60201c565b620002bb565b600033905090565b6000600760009054906101000a900473ffffffffffffffffffffffffffffffffffffffff16905081600760006101000a81548173ffffffffffffffffffffffffffffffffffffffff021916908373ffffffffffffffffffffffffffffffffffffffff1602179055508173ffffffffffffffffffffffffffffffffffffffff168173ffffffffffffffffffffffffffffffffffffffff167f8be0079c531659141344cd1fd0a4f28419497f9722a3daafe3b4186f6b6457e060405160405180910390a35050565b828054620001b49062000256565b90600052602060002090601f016020900481019282620001d8576000855562000224565b82601f10620001f357805160ff191683800117855562000224565b8280016001018555821562000224579182015b828111156200022357825182559160200191906001019062000206565b5b50905062000233919062000237565b5090565b5b808211156200025257600081600090555060010162000238565b5090565b600060028204905060018216806200026f57607f821691505b602082108114156200028657620002856200028c565b5b50919050565b7f4e487b7100000000000000000000000000000000000000000000000000000000600052602260045260246000fd5b612fbb80620002cb6000396000f3fe608060405234801561001057600080fd5b506004361061010b5760003560e01c8063715018a6116100a2578063b88d4fde11610071578063b88d4fde146102a4578063c87b56dd146102c0578063cf378343146102f0578063e985e9c514610320578063f2fde38b146103505761010b565b8063715018a6146102425780638da5cb5b1461024c57806395d89b411461026a578063a22cb465146102885761010b565b806323b872dd116100de57806323b872dd146101aa57806342842e0e146101c65780636352211e146101e257806370a08231146102125761010b565b806301ffc9a71461011057806306fdde0314610140578063081812fc1461015e578063095ea7b31461018e575b600080fd5b61012a60048036038101906101259190611f6a565b61036c565b60405161013791906123b6565b60405180910390f35b61014861044e565b60405161015591906123d1565b60405180910390f35b61017860048036038101906101739190611fbc565b6104e0565b604051610185919061234f565b60405180910390f35b6101a860048036038101906101a39190611f2e565b610565565b005b6101c460048036038101906101bf9190611dd4565b61067d565b005b6101e060048036038101906101db9190611dd4565b6106dd565b005b6101fc60048036038101906101f79190611fbc565b6106fd565b604051610209919061234f565b60405180910390f35b61022c60048036038101906102279190611d6f565b6107af565b6040516102399190612633565b60405180910390f35b61024a610867565b005b6102546108ef565b604051610261919061234f565b60405180910390f35b610272610919565b60405161027f91906123d1565b60405180910390f35b6102a2600480360381019061029d9190611e9e565b6109ab565b005b6102be60048036038101906102b99190611e23565b610b2c565b005b6102da60048036038101906102d59190611fbc565b610b8e565b6040516102e791906123d1565b60405180910390f35b61030a60048036038101906103059190611eda565b610ce0565b6040516103179190612633565b60405180910390f35b61033a60048036038101906103359190611d98565b610d94565b60405161034791906123b6565b60405180910390f35b61036a60048036038101906103659190611d6f565b610e28565b005b60007f80ac58cd000000000000000000000000000000000000000000000000000000007bffffffffffffffffffffffffffffffffffffffffffffffffffffffff1916827bffffffffffffffffffffffffffffffffffffffffffffffffffffffff1916148061043757507f5b5e139f000000000000000000000000000000000000000000000000000000007bffffffffffffffffffffffffffffffffffffffffffffffffffffffff1916827bffffffffffffffffffffffffffffffffffffffffffffffffffffffff1916145b80610447575061044682610f20565b5b9050919050565b60606000805461045d90612889565b80601f016020809104026020016040519081016040528092919081815260200182805461048990612889565b80156104d65780601f106104ab576101008083540402835291602001916104d6565b820191906000526020600020905b8154815290600101906020018083116104b957829003601f168201915b5050505050905090565b60006104eb82610f8a565b61052a576040517f08c379a000000000000000000000000000000000000000000000000000000000815260040161052190612573565b60405180910390fd5b6004600083815260200190815260200160002060009054906101000a900473ffffffffffffffffffffffffffffffffffffffff169050919050565b6000610570826106fd565b90508073ffffffffffffffffffffffffffffffffffffffff168373ffffffffffffffffffffffffffffffffffffffff1614156105e1576040517f08c379a00000000000000000000000000000000000000000000000000000000081526004016105d8906125f3565b60405180910390fd5b8073ffffffffffffffffffffffffffffffffffffffff16610600610ff6565b73ffffffffffffffffffffffffffffffffffffffff16148061062f575061062e81610629610ff6565b610d94565b5b61066e576040517f08c379a0000000000000000000000000000000000000000000000000000000008152600401610665906124b3565b60405180910390fd5b6106788383610ffe565b505050565b61068e610688610ff6565b826110b7565b6106cd576040517f08c379a00000000000000000000000000000000000000000000000000000000081526004016106c490612613565b60405180910390fd5b6106d8838383611195565b505050565b6106f883838360405180602001604052806000815250610b2c565b505050565b6000806002600084815260200190815260200160002060009054906101000a900473ffffffffffffffffffffffffffffffffffffffff169050600073ffffffffffffffffffffffffffffffffffffffff168173ffffffffffffffffffffffffffffffffffffffff1614156107a6576040517f08c379a000000000000000000000000000000000000000000000000000000000815260040161079d906124f3565b60405180910390fd5b80915050919050565b60008073ffffffffffffffffffffffffffffffffffffffff168273ffffffffffffffffffffffffffffffffffffffff161415610820576040517f08c379a0000000000000000000000000000000000000000000000000000000008152600401610817906124d3565b60405180910390fd5b600360008373ffffffffffffffffffffffffffffffffffffffff1673ffffffffffffffffffffffffffffffffffffffff168152602001908152602001600020549050919050565b61086f610ff6565b73ffffffffffffffffffffffffffffffffffffffff1661088d6108ef565b73ffffffffffffffffffffffffffffffffffffffff16146108e3576040517f08c379a00000000000000000000000000000000000000000000000000000000081526004016108da90612593565b60405180910390fd5b6108ed60006113f1565b565b6000600760009054906101000a900473ffffffffffffffffffffffffffffffffffffffff16905090565b60606001805461092890612889565b80601f016020809104026020016040519081016040528092919081815260200182805461095490612889565b80156109a15780601f10610976576101008083540402835291602001916109a1565b820191906000526020600020905b81548152906001019060200180831161098457829003601f168201915b5050505050905090565b6109b3610ff6565b73ffffffffffffffffffffffffffffffffffffffff168273ffffffffffffffffffffffffffffffffffffffff161415610a21576040517f08c379a0000000000000000000000000000000000000000000000000000000008152600401610a1890612473565b60405180910390fd5b8060056000610a2e610ff6565b73ffffffffffffffffffffffffffffffffffffffff1673ffffffffffffffffffffffffffffffffffffffff16815260200190815260200160002060008473ffffffffffffffffffffffffffffffffffffffff1673ffffffffffffffffffffffffffffffffffffffff16815260200190815260200160002060006101000a81548160ff0219169083151502179055508173ffffffffffffffffffffffffffffffffffffffff16610adb610ff6565b73ffffffffffffffffffffffffffffffffffffffff167f17307eab39ab6107e8899845ad3d59bd9653f200f220920489ca2b5937696c3183604051610b2091906123b6565b60405180910390a35050565b610b3d610b37610ff6565b836110b7565b610b7c576040517f08c379a0000000000000000000000000000000000000000000000000000000008152600401610b7390612613565b60405180910390fd5b610b88848484846114b7565b50505050565b6060610b9982610f8a565b610bd8576040517f08c379a0000000000000000000000000000000000000000000000000000000008152600401610bcf90612553565b60405180910390fd5b6000600660008481526020019081526020016000208054610bf890612889565b80601f0160208091040260200160405190810160405280929190818152602001828054610c2490612889565b8015610c715780601f10610c4657610100808354040283529160200191610c71565b820191906000526020600020905b815481529060010190602001808311610c5457829003601f168201915b505050505090506000610c82611513565b9050600081511415610c98578192505050610cdb565b600082511115610ccd578082604051602001610cb592919061232b565b60405160208183030381529060405292505050610cdb565b610cd68461152a565b925050505b919050565b6000610cea610ff6565b73ffffffffffffffffffffffffffffffffffffffff16610d086108ef565b73ffffffffffffffffffffffffffffffffffffffff1614610d5e576040517f08c379a0000000000000000000000000000000000000000000000000000000008152600401610d5590612593565b60405180910390fd5b610d6860086115d1565b6000610d7460086115e7565b9050610d8084826115f5565b610d8a81846117c3565b8091505092915050565b6000600560008473ffffffffffffffffffffffffffffffffffffffff1673ffffffffffffffffffffffffffffffffffffffff16815260200190815260200160002060008373ffffffffffffffffffffffffffffffffffffffff1673ffffffffffffffffffffffffffffffffffffffff16815260200190815260200160002060009054906101000a900460ff16905092915050565b610e30610ff6565b73ffffffffffffffffffffffffffffffffffffffff16610e4e6108ef565b73ffffffffffffffffffffffffffffffffffffffff1614610ea4576040517f08c379a0000000000000000000000000000000000000000000000000000000008152600401610e9b90612593565b60405180910390fd5b600073ffffffffffffffffffffffffffffffffffffffff168173ffffffffffffffffffffffffffffffffffffffff161415610f14576040517f08c379a0000000000000000000000000000000000000000000000000000000008152600401610f0b90612413565b60405180910390fd5b610f1d816113f1565b50565b60007f01ffc9a7000000000000000000000000000000000000000000000000000000007bffffffffffffffffffffffffffffffffffffffffffffffffffffffff1916827bffffffffffffffffffffffffffffffffffffffffffffffffffffffff1916149050919050565b60008073ffffffffffffffffffffffffffffffffffffffff166002600084815260200190815260200160002060009054906101000a900473ffffffffffffffffffffffffffffffffffffffff1673ffffffffffffffffffffffffffffffffffffffff1614159050919050565b600033905090565b816004600083815260200190815260200160002060006101000a81548173ffffffffffffffffffffffffffffffffffffffff021916908373ffffffffffffffffffffffffffffffffffffffff160217905550808273ffffffffffffffffffffffffffffffffffffffff16611071836106fd565b73ffffffffffffffffffffffffffffffffffffffff167f8c5be1e5ebec7d5bd14f71427d1e84f3dd0314c0f7b2291e5b200ac8c7c3b92560405160405180910390a45050565b60006110c282610f8a565b611101576040517f08c379a00000000000000000000000000000000000000000000000000000000081526004016110f890612493565b60405180910390fd5b600061110c836106fd565b90508073ffffffffffffffffffffffffffffffffffffffff168473ffffffffffffffffffffffffffffffffffffffff16148061117b57508373ffffffffffffffffffffffffffffffffffffffff16611163846104e0565b73ffffffffffffffffffffffffffffffffffffffff16145b8061118c575061118b8185610d94565b5b91505092915050565b8273ffffffffffffffffffffffffffffffffffffffff166111b5826106fd565b73ffffffffffffffffffffffffffffffffffffffff161461120b576040517f08c379a0000000000000000000000000000000000000000000000000000000008152600401611202906125b3565b60405180910390fd5b600073ffffffffffffffffffffffffffffffffffffffff168273ffffffffffffffffffffffffffffffffffffffff16141561127b576040517f08c379a000000000000000000000000000000000000000000000000000000000815260040161127290612453565b60405180910390fd5b611286838383611837565b611291600082610ffe565b6001600360008573ffffffffffffffffffffffffffffffffffffffff1673ffffffffffffffffffffffffffffffffffffffff16815260200190815260200160002060008282546112e1919061279f565b925050819055506001600360008473ffffffffffffffffffffffffffffffffffffffff1673ffffffffffffffffffffffffffffffffffffffff16815260200190815260200160002060008282546113389190612718565b92505081905550816002600083815260200190815260200160002060006101000a81548173ffffffffffffffffffffffffffffffffffffffff021916908373ffffffffffffffffffffffffffffffffffffffff160217905550808273ffffffffffffffffffffffffffffffffffffffff168473ffffffffffffffffffffffffffffffffffffffff167fddf252ad1be2c89b69c2b068fc378daa952ba7f163c4a11628f55a4df523b3ef60405160405180910390a4505050565b6000600760009054906101000a900473ffffffffffffffffffffffffffffffffffffffff16905081600760006101000a81548173ffffffffffffffffffffffffffffffffffffffff021916908373ffffffffffffffffffffffffffffffffffffffff1602179055508173ffffffffffffffffffffffffffffffffffffffff168173ffffffffffffffffffffffffffffffffffffffff167f8be0079c531659141344cd1fd0a4f28419497f9722a3daafe3b4186f6b6457e060405160405180910390a35050565b6114c2848484611195565b6114ce8484848461183c565b61150d576040517f08c379a0000000000000000000000000000000000000000000000000000000008152600401611504906123f3565b60405180910390fd5b50505050565b606060405180602001604052806000815250905090565b606061153582610f8a565b611574576040517f08c379a000000000000000000000000000000000000000000000000000000000815260040161156b906125d3565b60405180910390fd5b600061157e611513565b9050600081511161159e57604051806020016040528060008152506115c9565b806115a8846119d3565b6040516020016115b992919061232b565b6040516020818303038152906040525b915050919050565b6001816000016000828254019250508190555050565b600081600001549050919050565b600073ffffffffffffffffffffffffffffffffffffffff168273ffffffffffffffffffffffffffffffffffffffff161415611665576040517f08c379a000000000000000000000000000000000000000000000000000000000815260040161165c90612533565b60405180910390fd5b61166e81610f8a565b156116ae576040517f08c379a00000000000000000000000000000000000000000000000000000000081526004016116a590612433565b60405180910390fd5b6116ba60008383611837565b6001600360008473ffffffffffffffffffffffffffffffffffffffff1673ffffffffffffffffffffffffffffffffffffffff168152602001908152602001600020600082825461170a9190612718565b92505081905550816002600083815260200190815260200160002060006101000a81548173ffffffffffffffffffffffffffffffffffffffff021916908373ffffffffffffffffffffffffffffffffffffffff160217905550808273ffffffffffffffffffffffffffffffffffffffff16600073ffffffffffffffffffffffffffffffffffffffff167fddf252ad1be2c89b69c2b068fc378daa952ba7f163c4a11628f55a4df523b3ef60405160405180910390a45050565b6117cc82610f8a565b61180b576040517f08c379a000000000000000000000000000000000000000000000000000000000815260040161180290612513565b60405180910390fd5b80600660008481526020019081526020016000209080519060200190611832929190611b93565b505050565b505050565b600061185d8473ffffffffffffffffffffffffffffffffffffffff16611b80565b156119c6578373ffffffffffffffffffffffffffffffffffffffff1663150b7a02611886610ff6565b8786866040518563ffffffff1660e01b81526004016118a8949392919061236a565b602060405180830381600087803b1580156118c257600080fd5b505af19250505080156118f357506040513d601f19601f820116820180604052508101906118f09190611f93565b60015b611976573d8060008114611923576040519150601f19603f3d011682016040523d82523d6000602084013e611928565b606091505b5060008151141561196e576040517f08c379a0000000000000000000000000000000000000000000000000000000008152600401611965906123f3565b60405180910390fd5b805181602001fd5b63150b7a0260e01b7bffffffffffffffffffffffffffffffffffffffffffffffffffffffff1916817bffffffffffffffffffffffffffffffffffffffffffffffffffffffff1916149150506119cb565b600190505b949350505050565b60606000821415611a1b576040518060400160405280600181526020017f30000000000000000000000000000000000000000000000000000000000000008152509050611b7b565b600082905060005b60008214611a4d578080611a36906128ec565b915050600a82611a46919061276e565b9150611a23565b60008167ffffffffffffffff811115611a8f577f4e487b7100000000000000000000000000000000000000000000000000000000600052604160045260246000fd5b6040519080825280601f01601f191660200182016040528015611ac15781602001600182028036833780820191505090505b5090505b60008514611b7457600182611ada919061279f565b9150600a85611ae99190612935565b6030611af59190612718565b60f81b818381518110611b31577f4e487b7100000000000000000000000000000000000000000000000000000000600052603260045260246000fd5b60200101907effffffffffffffffffffffffffffffffffffffffffffffffffffffffffffff1916908160001a905350600a85611b6d919061276e565b9450611ac5565b8093505050505b919050565b600080823b905060008111915050919050565b828054611b9f90612889565b90600052602060002090601f016020900481019282611bc15760008555611c08565b82601f10611bda57805160ff1916838001178555611c08565b82800160010185558215611c08579182015b82811115611c07578251825591602001919060010190611bec565b5b509050611c159190611c19565b5090565b5b80821115611c32576000816000905550600101611c1a565b5090565b6000611c49611c4484612673565b61264e565b905082815260208101848484011115611c6157600080fd5b611c6c848285612847565b509392505050565b6000611c87611c82846126a4565b61264e565b905082815260208101848484011115611c9f57600080fd5b611caa848285612847565b509392505050565b600081359050611cc181612f29565b92915050565b600081359050611cd681612f40565b92915050565b600081359050611ceb81612f57565b92915050565b600081519050611d0081612f57565b92915050565b600082601f830112611d1757600080fd5b8135611d27848260208601611c36565b91505092915050565b600082601f830112611d4157600080fd5b8135611d51848260208601611c74565b91505092915050565b600081359050611d6981612f6e565b92915050565b600060208284031215611d8157600080fd5b6000611d8f84828501611cb2565b91505092915050565b60008060408385031215611dab57600080fd5b6000611db985828601611cb2565b9250506020611dca85828601611cb2565b9150509250929050565b600080600060608486031215611de957600080fd5b6000611df786828701611cb2565b9350506020611e0886828701611cb2565b9250506040611e1986828701611d5a565b9150509250925092565b60008060008060808587031215611e3957600080fd5b6000611e4787828801611cb2565b9450506020611e5887828801611cb2565b9350506040611e6987828801611d5a565b925050606085013567ffffffffffffffff811115611e8657600080fd5b611e9287828801611d06565b91505092959194509250565b60008060408385031215611eb157600080fd5b6000611ebf85828601611cb2565b9250506020611ed085828601611cc7565b9150509250929050565b60008060408385031215611eed57600080fd5b6000611efb85828601611cb2565b925050602083013567ffffffffffffffff811115611f1857600080fd5b611f2485828601611d30565b9150509250929050565b60008060408385031215611f4157600080fd5b6000611f4f85828601611cb2565b9250506020611f6085828601611d5a565b9150509250929050565b600060208284031215611f7c57600080fd5b6000611f8a84828501611cdc565b91505092915050565b600060208284031215611fa557600080fd5b6000611fb384828501611cf1565b91505092915050565b600060208284031215611fce57600080fd5b6000611fdc84828501611d5a565b91505092915050565b611fee816127d3565b82525050565b611ffd816127e5565b82525050565b600061200e826126d5565b61201881856126eb565b9350612028818560208601612856565b61203181612a22565b840191505092915050565b6000612047826126e0565b61205181856126fc565b9350612061818560208601612856565b61206a81612a22565b840191505092915050565b6000612080826126e0565b61208a818561270d565b935061209a818560208601612856565b80840191505092915050565b60006120b36032836126fc565b91506120be82612a33565b604082019050919050565b60006120d66026836126fc565b91506120e182612a82565b604082019050919050565b60006120f9601c836126fc565b915061210482612ad1565b602082019050919050565b600061211c6024836126fc565b915061212782612afa565b604082019050919050565b600061213f6019836126fc565b915061214a82612b49565b602082019050919050565b6000612162602c836126fc565b915061216d82612b72565b604082019050919050565b60006121856038836126fc565b915061219082612bc1565b604082019050919050565b60006121a8602a836126fc565b91506121b382612c10565b604082019050919050565b60006121cb6029836126fc565b91506121d682612c5f565b604082019050919050565b60006121ee602e836126fc565b91506121f982612cae565b604082019050919050565b60006122116020836126fc565b915061221c82612cfd565b602082019050919050565b60006122346031836126fc565b915061223f82612d26565b604082019050919050565b6000612257602c836126fc565b915061226282612d75565b604082019050919050565b600061227a6020836126fc565b915061228582612dc4565b602082019050919050565b600061229d6029836126fc565b91506122a882612ded565b604082019050919050565b60006122c0602f836126fc565b91506122cb82612e3c565b604082019050919050565b60006122e36021836126fc565b91506122ee82612e8b565b604082019050919050565b60006123066031836126fc565b915061231182612eda565b604082019050919050565b6123258161283d565b82525050565b60006123378285612075565b91506123438284612075565b91508190509392505050565b60006020820190506123646000830184611fe5565b92915050565b600060808201905061237f6000830187611fe5565b61238c6020830186611fe5565b612399604083018561231c565b81810360608301526123ab8184612003565b905095945050505050565b60006020820190506123cb6000830184611ff4565b92915050565b600060208201905081810360008301526123eb818461203c565b905092915050565b6000602082019050818103600083015261240c816120a6565b9050919050565b6000602082019050818103600083015261242c816120c9565b9050919050565b6000602082019050818103600083015261244c816120ec565b9050919050565b6000602082019050818103600083015261246c8161210f565b9050919050565b6000602082019050818103600083015261248c81612132565b9050919050565b600060208201905081810360008301526124ac81612155565b9050919050565b600060208201905081810360008301526124cc81612178565b9050919050565b600060208201905081810360008301526124ec8161219b565b9050919050565b6000602082019050818103600083015261250c816121be565b9050919050565b6000602082019050818103600083015261252c816121e1565b9050919050565b6000602082019050818103600083015261254c81612204565b9050919050565b6000602082019050818103600083015261256c81612227565b9050919050565b6000602082019050818103600083015261258c8161224a565b9050919050565b600060208201905081810360008301526125ac8161226d565b9050919050565b600060208201905081810360008301526125cc81612290565b9050919050565b600060208201905081810360008301526125ec816122b3565b9050919050565b6000602082019050818103600083015261260c816122d6565b9050919050565b6000602082019050818103600083015261262c816122f9565b9050919050565b6000602082019050612648600083018461231c565b92915050565b6000612658612669565b905061266482826128bb565b919050565b6000604051905090565b600067ffffffffffffffff82111561268e5761268d6129f3565b5b61269782612a22565b9050602081019050919050565b600067ffffffffffffffff8211156126bf576126be6129f3565b5b6126c882612a22565b9050602081019050919050565b600081519050919050565b600081519050919050565b600082825260208201905092915050565b600082825260208201905092915050565b600081905092915050565b60006127238261283d565b915061272e8361283d565b9250827fffffffffffffffffffffffffffffffffffffffffffffffffffffffffffffffff0382111561276357612762612966565b5b828201905092915050565b60006127798261283d565b91506127848361283d565b92508261279457612793612995565b5b828204905092915050565b60006127aa8261283d565b91506127b58361283d565b9250828210156127c8576127c7612966565b5b828203905092915050565b60006127de8261281d565b9050919050565b60008115159050919050565b60007fffffffff0000000000000000000000000000000000000000000000000000000082169050919050565b600073ffffffffffffffffffffffffffffffffffffffff82169050919050565b6000819050919050565b82818337600083830152505050565b60005b83811015612874578082015181840152602081019050612859565b83811115612883576000848401525b50505050565b600060028204905060018216806128a157607f821691505b602082108114156128b5576128b46129c4565b5b50919050565b6128c482612a22565b810181811067ffffffffffffffff821117156128e3576128e26129f3565b5b80604052505050565b60006128f78261283d565b91507fffffffffffffffffffffffffffffffffffffffffffffffffffffffffffffffff82141561292a57612929612966565b5b600182019050919050565b60006129408261283d565b915061294b8361283d565b92508261295b5761295a612995565b5b828206905092915050565b7f4e487b7100000000000000000000000000000000000000000000000000000000600052601160045260246000fd5b7f4e487b7100000000000000000000000000000000000000000000000000000000600052601260045260246000fd5b7f4e487b7100000000000000000000000000000000000000000000000000000000600052602260045260246000fd5b7f4e487b7100000000000000000000000000000000000000000000000000000000600052604160045260246000fd5b6000601f19601f8301169050919050565b7f4552433732313a207472616e7366657220746f206e6f6e20455243373231526560008201527f63656976657220696d706c656d656e7465720000000000000000000000000000602082015250565b7f4f776e61626c653a206e6577206f776e657220697320746865207a65726f206160008201527f6464726573730000000000000000000000000000000000000000000000000000602082015250565b7f4552433732313a20746f6b656e20616c7265616479206d696e74656400000000600082015250565b7f4552433732313a207472616e7366657220746f20746865207a65726f2061646460008201527f7265737300000000000000000000000000000000000000000000000000000000602082015250565b7f4552433732313a20617070726f766520746f2063616c6c657200000000000000600082015250565b7f4552433732313a206f70657261746f7220717565727920666f72206e6f6e657860008201527f697374656e7420746f6b656e0000000000000000000000000000000000000000602082015250565b7f4552433732313a20617070726f76652063616c6c6572206973206e6f74206f7760008201527f6e6572206e6f7220617070726f76656420666f7220616c6c0000000000000000602082015250565b7f4552433732313a2062616c616e636520717565727920666f7220746865207a6560008201527f726f206164647265737300000000000000000000000000000000000000000000602082015250565b7f4552433732313a206f776e657220717565727920666f72206e6f6e657869737460008201527f656e7420746f6b656e0000000000000000000000000000000000000000000000602082015250565b7f45524337323155524953746f726167653a2055524920736574206f66206e6f6e60008201527f6578697374656e7420746f6b656e000000000000000000000000000000000000602082015250565b7f4552433732313a206d696e7420746f20746865207a65726f2061646472657373600082015250565b7f45524337323155524953746f726167653a2055524920717565727920666f722060008201527f6e6f6e6578697374656e7420746f6b656e000000000000000000000000000000602082015250565b7f4552433732313a20617070726f76656420717565727920666f72206e6f6e657860008201527f697374656e7420746f6b656e0000000000000000000000000000000000000000602082015250565b7f4f776e61626c653a2063616c6c6572206973206e6f7420746865206f776e6572600082015250565b7f4552433732313a207472616e73666572206f6620746f6b656e2074686174206960008201527f73206e6f74206f776e0000000000000000000000000000000000000000000000602082015250565b7f4552433732314d657461646174613a2055524920717565727920666f72206e6f60008201527f6e6578697374656e7420746f6b656e0000000000000000000000000000000000602082015250565b7f4552433732313a20617070726f76616c20746f2063757272656e74206f776e6560008201527f7200000000000000000000000000000000000000000000000000000000000000602082015250565b7f4552433732313a207472616e736665722063616c6c6572206973206e6f74206f60008201527f776e6572206e6f7220617070726f766564000000000000000000000000000000602082015250565b612f32816127d3565b8114612f3d57600080fd5b50565b612f49816127e5565b8114612f5457600080fd5b50565b612f60816127f1565b8114612f6b57600080fd5b50565b612f778161283d565b8114612f8257600080fd5b5056fea264697066735822122040067b3449f9ba859f6ea6d84511be54aceaa5548e8df38524ba071e050df4e964736f6c63430008030033",
  "immutableReferences": {},
  "source": "// UPLOAD FILES TO IPFS FROM BROWSER\n// https://anarkrypto.github.io/upload-files-to-ipfs-from-browser-panel/public/\n// https://nft.storage/\n\n// SPDX-License-Identifier: MIT\npragma solidity ^0.8.0;\n\nimport \"@openzeppelin/contracts/token/ERC721/extensions/ERC721URIStorage.sol\";\nimport \"@openzeppelin/contracts/utils/Counters.sol\";\nimport \"@openzeppelin/contracts/access/Ownable.sol\";\n\ncontract GameItem is ERC721URIStorage, Ownable {\n    using Counters for Counters.Counter;\n    Counters.Counter private _tokenIds;\n\n    constructor() ERC721(\"GameItem\", \"ITM\") {}\n\n    function awardItem(address player, string memory tokenURI)\n        public\n        onlyOwner\n        returns (uint256)\n    {\n        _tokenIds.increment();\n\n        uint256 newItemId = _tokenIds.current();\n        _mint(player, newItemId);\n        _setTokenURI(newItemId, tokenURI);\n\n        return newItemId;\n    }\n}\n",
  "sourcePath": "/Users/luisvidela/Development/EducacionIT/blockchain/clase6/ERCtokens/ERC20-721/contracts/NFTEjemplo.sol",
  "compiler": {
    "name": "solc",
    "version": "0.8.3+commit.8d00100c.Emscripten.clang"
  },
  "schemaVersion": "3.4.3",
  "updatedAt": "2021-10-13T23:38:33.199Z",
  "networkType": "ethereum",
  "devdoc": {
    "kind": "dev",
    "methods": {
      "approve(address,uint256)": {
        "details": "See {IERC721-approve}."
      },
      "balanceOf(address)": {
        "details": "See {IERC721-balanceOf}."
      },
      "getApproved(uint256)": {
        "details": "See {IERC721-getApproved}."
      },
      "isApprovedForAll(address,address)": {
        "details": "See {IERC721-isApprovedForAll}."
      },
      "name()": {
        "details": "See {IERC721Metadata-name}."
      },
      "owner()": {
        "details": "Returns the address of the current owner."
      },
      "ownerOf(uint256)": {
        "details": "See {IERC721-ownerOf}."
      },
      "renounceOwnership()": {
        "details": "Leaves the contract without owner. It will not be possible to call `onlyOwner` functions anymore. Can only be called by the current owner. NOTE: Renouncing ownership will leave the contract without an owner, thereby removing any functionality that is only available to the owner."
      },
      "safeTransferFrom(address,address,uint256)": {
        "details": "See {IERC721-safeTransferFrom}."
      },
      "safeTransferFrom(address,address,uint256,bytes)": {
        "details": "See {IERC721-safeTransferFrom}."
      },
      "setApprovalForAll(address,bool)": {
        "details": "See {IERC721-setApprovalForAll}."
      },
      "supportsInterface(bytes4)": {
        "details": "See {IERC165-supportsInterface}."
      },
      "symbol()": {
        "details": "See {IERC721Metadata-symbol}."
      },
      "tokenURI(uint256)": {
        "details": "See {IERC721Metadata-tokenURI}."
      },
      "transferFrom(address,address,uint256)": {
        "details": "See {IERC721-transferFrom}."
      },
      "transferOwnership(address)": {
        "details": "Transfers ownership of the contract to a new account (`newOwner`). Can only be called by the current owner."
      }
    },
    "version": 1
  },
  "userdoc": {
    "kind": "user",
    "methods": {},
    "version": 1
  }
}